{
  "contractName": "MyTasksContract",
  "abi": [
    {
      "inputs": [],
      "stateMutability": "nonpayable",
      "type": "constructor"
    },
    {
      "anonymous": false,
      "inputs": [
        {
          "indexed": false,
          "internalType": "uint256",
          "name": "id",
          "type": "uint256"
        },
        {
          "indexed": false,
          "internalType": "string",
          "name": "title",
          "type": "string"
        },
        {
          "indexed": false,
          "internalType": "string",
          "name": "description",
          "type": "string"
        },
        {
          "indexed": false,
          "internalType": "bool",
          "name": "done",
          "type": "bool"
        },
        {
          "indexed": false,
          "internalType": "uint256",
          "name": "createdAt",
          "type": "uint256"
        }
      ],
      "name": "TaskCreated",
      "type": "event"
    },
    {
      "anonymous": false,
      "inputs": [
        {
          "indexed": false,
          "internalType": "uint256",
          "name": "id",
          "type": "uint256"
        },
        {
          "indexed": false,
          "internalType": "bool",
          "name": "done",
          "type": "bool"
        }
      ],
      "name": "TaskDone",
      "type": "event"
    },
    {
      "inputs": [],
      "name": "pruebaDone",
      "outputs": [
        {
          "internalType": "bool",
          "name": "",
          "type": "bool"
        }
      ],
      "stateMutability": "view",
      "type": "function",
      "constant": true
    },
    {
      "inputs": [],
      "name": "taskCounter",
      "outputs": [
        {
          "internalType": "uint256",
          "name": "",
          "type": "uint256"
        }
      ],
      "stateMutability": "view",
      "type": "function",
      "constant": true
    },
    {
      "inputs": [
        {
          "internalType": "uint256",
          "name": "",
          "type": "uint256"
        }
      ],
      "name": "tasks",
      "outputs": [
        {
          "internalType": "uint256",
          "name": "id",
          "type": "uint256"
        },
        {
          "internalType": "string",
          "name": "title",
          "type": "string"
        },
        {
          "internalType": "string",
          "name": "description",
          "type": "string"
        },
        {
          "internalType": "bool",
          "name": "done",
          "type": "bool"
        },
        {
          "internalType": "uint256",
          "name": "createdAt",
          "type": "uint256"
        }
      ],
      "stateMutability": "view",
      "type": "function",
      "constant": true
    },
    {
      "inputs": [
        {
          "internalType": "string",
          "name": "_title",
          "type": "string"
        },
        {
          "internalType": "string",
          "name": "_description",
          "type": "string"
        }
      ],
      "name": "createTask",
      "outputs": [],
      "stateMutability": "nonpayable",
      "type": "function"
    },
    {
      "inputs": [
        {
          "internalType": "uint256",
          "name": "_id",
          "type": "uint256"
        }
      ],
      "name": "taskDone",
      "outputs": [],
      "stateMutability": "nonpayable",
      "type": "function"
    },
    {
      "inputs": [],
      "name": "getTaskDone",
      "outputs": [
        {
          "internalType": "bool",
          "name": "_pruebaDone",
          "type": "bool"
        }
      ],
      "stateMutability": "view",
      "type": "function",
      "constant": true
    }
  ],
  "bytecode": "0x608060405260006001556000600260006101000a81548160ff0219169083151502179055503480156200003157600080fd5b50620000ae6040518060400160405280600681526020017f5461736b203100000000000000000000000000000000000000000000000000008152506040518060400160405280600981526020017f6578616d706c6520310000000000000000000000000000000000000000000000815250620000b460201b60201c565b620004a4565b60016000815480929190620000c990620003e7565b91905055506040518060a00160405280600154815260200183815260200182815260200160001515815260200142815250600080600154815260200190815260200160002060008201518160000155602082015181600101908051906020019062000136929190620001cb565b50604082015181600201908051906020019062000155929190620001cb565b5060608201518160030160006101000a81548160ff021916908315150217905550608082015181600401559050507f6549102bed7d1bb5ec529ee14e2ca60ffc1f47f66d4cc6ca713220613cc64c256001548383600042604051620001bf959493929190620002de565b60405180910390a15050565b828054620001d990620003b1565b90600052602060002090601f016020900481019282620001fd576000855562000249565b82601f106200021857805160ff191683800117855562000249565b8280016001018555821562000249579182015b82811115620002485782518255916020019190600101906200022b565b5b5090506200025891906200025c565b5090565b5b80821115620002775760008160009055506001016200025d565b5090565b620002868162000365565b82525050565b6000620002998262000349565b620002a5818562000354565b9350620002b78185602086016200037b565b620002c28162000493565b840191505092915050565b620002d88162000371565b82525050565b600060a082019050620002f56000830188620002cd565b81810360208301526200030981876200028c565b905081810360408301526200031f81866200028c565b90506200033060608301856200027b565b6200033f6080830184620002cd565b9695505050505050565b600081519050919050565b600082825260208201905092915050565b60008115159050919050565b6000819050919050565b60005b838110156200039b5780820151818401526020810190506200037e565b83811115620003ab576000848401525b50505050565b60006002820490506001821680620003ca57607f821691505b60208210811415620003e157620003e062000464565b5b50919050565b6000620003f48262000371565b91507fffffffffffffffffffffffffffffffffffffffffffffffffffffffffffffffff8214156200042a576200042962000435565b5b600182019050919050565b7f4e487b7100000000000000000000000000000000000000000000000000000000600052601160045260246000fd5b7f4e487b7100000000000000000000000000000000000000000000000000000000600052602260045260246000fd5b6000601f19601f8301169050919050565b610b8480620004b46000396000f3fe608060405234801561001057600080fd5b50600436106100625760003560e01c8063292a4585146100675780632f565ba914610083578063586717301461009f5780638d977672146100bd578063dbd2ab03146100f1578063dc0c33821461010f575b600080fd5b610081600480360381019061007c9190610753565b61012d565b005b61009d600480360381019061009891906107cb565b61023c565b005b6100a76104a8565b6040516100b4919061086a565b60405180910390f35b6100d760048036038101906100d291906107cb565b6104ae565b6040516100e89594939291906108ae565b60405180910390f35b6100f9610601565b604051610106919061084f565b60405180910390f35b610117610614565b604051610124919061084f565b60405180910390f35b6001600081548092919061014090610a3c565b91905055506040518060a0016040528060015481526020018381526020018281526020016000151581526020014281525060008060015481526020019081526020016000206000820151816000015560208201518160010190805190602001906101ab92919061062b565b5060408201518160020190805190602001906101c892919061062b565b5060608201518160030160006101000a81548160ff021916908315150217905550608082015181600401559050507f6549102bed7d1bb5ec529ee14e2ca60ffc1f47f66d4cc6ca713220613cc64c2560015483836000426040516102309594939291906108ae565b60405180910390a15050565b60008060008381526020019081526020016000206040518060a001604052908160008201548152602001600182018054610275906109d9565b80601f01602080910402602001604051908101604052809291908181526020018280546102a1906109d9565b80156102ee5780601f106102c3576101008083540402835291602001916102ee565b820191906000526020600020905b8154815290600101906020018083116102d157829003601f168201915b50505050508152602001600282018054610307906109d9565b80601f0160208091040260200160405190810160405280929190818152602001828054610333906109d9565b80156103805780601f1061035557610100808354040283529160200191610380565b820191906000526020600020905b81548152906001019060200180831161036357829003601f168201915b505050505081526020016003820160009054906101000a900460ff161515151581526020016004820154815250509050806060015115816060019015159081151581525050806000808481526020019081526020016000206000820151816000015560208201518160010190805190602001906103fe92919061062b565b50604082015181600201908051906020019061041b92919061062b565b5060608201518160030160006101000a81548160ff021916908315150217905550608082015181600401559050508060600151600260006101000a81548160ff0219169083151502179055507f251062f57a23c015c1bb3d83e76d85792cfbbf680886fc45d962d4605b0e5ea282826060015160405161049c929190610885565b60405180910390a15050565b60015481565b60006020528060005260406000206000915090508060000154908060010180546104d7906109d9565b80601f0160208091040260200160405190810160405280929190818152602001828054610503906109d9565b80156105505780601f1061052557610100808354040283529160200191610550565b820191906000526020600020905b81548152906001019060200180831161053357829003601f168201915b505050505090806002018054610565906109d9565b80601f0160208091040260200160405190810160405280929190818152602001828054610591906109d9565b80156105de5780601f106105b3576101008083540402835291602001916105de565b820191906000526020600020905b8154815290600101906020018083116105c157829003601f168201915b5050505050908060030160009054906101000a900460ff16908060040154905085565b600260009054906101000a900460ff1681565b6000600260009054906101000a900460ff16905090565b828054610637906109d9565b90600052602060002090601f01602090048101928261065957600085556106a0565b82601f1061067257805160ff19168380011785556106a0565b828001600101855582156106a0579182015b8281111561069f578251825591602001919060010190610684565b5b5090506106ad91906106b1565b5090565b5b808211156106ca5760008160009055506001016106b2565b5090565b60006106e16106dc84610934565b61090f565b9050828152602081018484840111156106fd576106fc610b17565b5b610708848285610997565b509392505050565b600082601f83011261072557610724610b12565b5b81356107358482602086016106ce565b91505092915050565b60008135905061074d81610b37565b92915050565b6000806040838503121561076a57610769610b21565b5b600083013567ffffffffffffffff81111561078857610787610b1c565b5b61079485828601610710565b925050602083013567ffffffffffffffff8111156107b5576107b4610b1c565b5b6107c185828601610710565b9150509250929050565b6000602082840312156107e1576107e0610b21565b5b60006107ef8482850161073e565b91505092915050565b61080181610981565b82525050565b600061081282610965565b61081c8185610970565b935061082c8185602086016109a6565b61083581610b26565b840191505092915050565b6108498161098d565b82525050565b600060208201905061086460008301846107f8565b92915050565b600060208201905061087f6000830184610840565b92915050565b600060408201905061089a6000830185610840565b6108a760208301846107f8565b9392505050565b600060a0820190506108c36000830188610840565b81810360208301526108d58187610807565b905081810360408301526108e98186610807565b90506108f860608301856107f8565b6109056080830184610840565b9695505050505050565b600061091961092a565b90506109258282610a0b565b919050565b6000604051905090565b600067ffffffffffffffff82111561094f5761094e610ae3565b5b61095882610b26565b9050602081019050919050565b600081519050919050565b600082825260208201905092915050565b60008115159050919050565b6000819050919050565b82818337600083830152505050565b60005b838110156109c45780820151818401526020810190506109a9565b838111156109d3576000848401525b50505050565b600060028204905060018216806109f157607f821691505b60208210811415610a0557610a04610ab4565b5b50919050565b610a1482610b26565b810181811067ffffffffffffffff82111715610a3357610a32610ae3565b5b80604052505050565b6000610a478261098d565b91507fffffffffffffffffffffffffffffffffffffffffffffffffffffffffffffffff821415610a7a57610a79610a85565b5b600182019050919050565b7f4e487b7100000000000000000000000000000000000000000000000000000000600052601160045260246000fd5b7f4e487b7100000000000000000000000000000000000000000000000000000000600052602260045260246000fd5b7f4e487b7100000000000000000000000000000000000000000000000000000000600052604160045260246000fd5b600080fd5b600080fd5b600080fd5b600080fd5b6000601f19601f8301169050919050565b610b408161098d565b8114610b4b57600080fd5b5056fea2646970667358221220802946ebcf38487bb79db1cf9c4b0d69ebd146c753ba9bb14cc68b3da32ffa3664736f6c63430008060033",
  "immutableReferences": {},
  "source": "// SPDX-License-Identifier: MIT\r\npragma solidity ^0.8.6;\r\n\r\ncontract MyTasksContract {\r\n    //Variables declared.\r\n    struct Task {\r\n        uint256 id;\r\n        string title;\r\n        string description;\r\n        bool done;\r\n        uint256 createdAt;\r\n    }\r\n    //Key -> uint256 , Value -> object Task / public List of tasks called \"tasks\".\r\n    mapping (uint256 => Task) public tasks;\r\n    \r\n    uint public taskCounter = 0;\r\n\r\n    bool public pruebaDone = false;\r\n   \r\n    constructor(){\r\n        createTask(\"Task 1\",\"example 1\");\r\n    }\r\n   \r\n    //Event that is made when a new task is created.\r\n    event TaskCreated(\r\n        uint id,\r\n        string title,\r\n        string description,\r\n        bool done,\r\n        uint createdAt\r\n    );\r\n\r\n    //\"memory\" is a key word which indicates a temporarily use of variable (local variable), only when the function is called. \r\n    //Access modifier is needed in order to make a visible function on the blockchain network.\r\n    function createTask(string memory _title, string memory _description) public {\r\n       taskCounter++;\r\n       tasks[taskCounter] = Task(taskCounter, _title, _description, false, block.timestamp);\r\n        //emit calls the event function.\r\n        emit TaskCreated(taskCounter, _title, _description, false, block.timestamp);\r\n    }\r\n\r\n    //Event that is made when the task is done.\r\n    event TaskDone(uint id, bool done);\r\n    \r\n    function taskDone(uint256 _id) public {\r\n        Task memory _localTask = tasks[_id];\r\n        _localTask.done = !_localTask.done;\r\n        tasks[_id] = _localTask; \r\n\r\n        pruebaDone = _localTask.done;\r\n\r\n        emit TaskDone(_id, _localTask.done);\r\n    }\r\n\r\n    function getTaskDone() public view returns(bool _pruebaDone){\r\n      return pruebaDone;\r\n    }\r\n\r\n}",
  "sourcePath": "C:\\Users\\rafam\\Desktop\\repositorios\\myfirstsmartcontract\\contracts\\MyTasksContract.sol",
  "compiler": {
    "name": "solc",
    "version": "0.8.6+commit.11564f7e.Emscripten.clang"
  },
  "schemaVersion": "3.4.4",
  "updatedAt": "2022-01-01T19:26:38.562Z",
  "networkType": "ethereum",
  "devdoc": {
    "kind": "dev",
    "methods": {},
    "version": 1
  },
  "userdoc": {
    "kind": "user",
    "methods": {},
    "version": 1
  }
}